{"contracts/ThesisManagement.sol":{"ThesisManagement":{"abi":[{"anonymous":false,"inputs":[{"indexed":true,"internalType":"string","name":"studentDID","type":"string"},{"indexed":true,"internalType":"string","name":"topicId","type":"string"},{"indexed":false,"internalType":"uint8","name":"grade","type":"uint8"}],"name":"GradeFinalized","type":"event"},{"anonymous":false,"inputs":[{"indexed":true,"internalType":"string","name":"studentDID","type":"string"},{"indexed":true,"internalType":"string","name":"topicId","type":"string"},{"indexed":false,"internalType":"string","name":"ipfsCID","type":"string"}],"name":"ReportSubmitted","type":"event"},{"anonymous":false,"inputs":[{"indexed":true,"internalType":"string","name":"topicId","type":"string"},{"indexed":false,"internalType":"string","name":"title","type":"string"},{"indexed":true,"internalType":"string","name":"advisorDID","type":"string"}],"name":"TopicRegistered","type":"event"},{"inputs":[{"internalType":"string","name":"","type":"string"},{"internalType":"uint256","name":"","type":"uint256"}],"name":"advisorTopics","outputs":[{"internalType":"string","name":"","type":"string"}],"stateMutability":"view","type":"function"},{"inputs":[{"internalType":"string","name":"studentDID","type":"string"},{"internalType":"string","name":"topicId","type":"string"},{"internalType":"uint8","name":"grade","type":"uint8"},{"internalType":"string","name":"feedback","type":"string"},{"internalType":"uint256","name":"submissionIndex","type":"uint256"}],"name":"finalizeGrade","outputs":[],"stateMutability":"nonpayable","type":"function"},{"inputs":[{"internalType":"string","name":"studentDID","type":"string"},{"internalType":"string","name":"topicId","type":"string"}],"name":"getSubmissionHistory","outputs":[{"components":[{"internalType":"string","name":"studentDID","type":"string"},{"internalType":"string","name":"topicId","type":"string"},{"internalType":"string","name":"ipfsCID","type":"string"},{"internalType":"uint256","name":"timestamp","type":"uint256"},{"internalType":"uint8","name":"grade","type":"uint8"},{"internalType":"string","name":"feedback","type":"string"},{"internalType":"bool","name":"graded","type":"bool"}],"internalType":"struct ThesisManagement.Submission[]","name":"","type":"tuple[]"}],"stateMutability":"view","type":"function"},{"inputs":[{"internalType":"string","name":"advisorDID","type":"string"}],"name":"getTopicsByAdvisor","outputs":[{"internalType":"string[]","name":"","type":"string[]"}],"stateMutability":"view","type":"function"},{"inputs":[{"internalType":"string","name":"topicId","type":"string"},{"internalType":"string","name":"title","type":"string"},{"internalType":"string","name":"advisorDID","type":"string"},{"internalType":"uint256","name":"deadline","type":"uint256"},{"internalType":"string[]","name":"requirements","type":"string[]"}],"name":"registerTopic","outputs":[],"stateMutability":"nonpayable","type":"function"},{"inputs":[{"internalType":"string","name":"studentDID","type":"string"},{"internalType":"string","name":"topicId","type":"string"},{"internalType":"string","name":"ipfsCID","type":"string"},{"internalType":"uint256","name":"timestamp","type":"uint256"}],"name":"submitReport","outputs":[],"stateMutability":"nonpayable","type":"function"},{"inputs":[{"internalType":"string","name":"","type":"string"}],"name":"topics","outputs":[{"internalType":"string","name":"title","type":"string"},{"internalType":"string","name":"advisorDID","type":"string"},{"internalType":"uint256","name":"deadline","type":"uint256"},{"internalType":"bool","name":"exists","type":"bool"}],"stateMutability":"view","type":"function"}],"evm":{"bytecode":{"linkReferences":{},"object":"60808060405234610016576110a3908161001c8239f35b600080fdfe6080604052600436101561001257600080fd5b60e0600035811c90816356397c2814610ae55781636080359414610a535781636401c4cf146106d0578163b2cbbcde14610435578163c2e85ea71461023657508063d831a67f146101215763f75c6c721461006c57600080fd5b3461011c57602036600319011261011c5760043567ffffffffffffffff811161011c576100b860206100a56100fd933690600401610ce7565b8160405193828580945193849201610d3e565b810160008152030190206100cb81610def565b906100d860018201610def565b61010b60ff600460028501549401541691604051958695608087526080870190610e95565b908582036020870152610e95565b916040840152151560608301520390f35b600080fd5b3461011c5760208060031936011261011c5760043567ffffffffffffffff811161011c57610153903690600401610ce7565b90806101686040519384815193849201610d3e565b8201918181600194858152030190209182549161018483610eba565b926101926040519485610cc5565b8084528184018095600052826000206000915b83831061020d5750505050604051928184019082855251809152604084019160408260051b86010195926000905b8382106101e05786880387f35b909192939483806101fc839a603f198b82030186528951610e95565b9997019594939190910191016101d3565b90858086819a989594610222859b999b610def565b8152019201920192509694969593956101a5565b3461011c57604036600319011261011c5767ffffffffffffffff60043581811161011c57610268903690600401610ce7565b9060243590811161011c57610281903690600401610ce7565b6102ae60405192825161029981866020809701610d3e565b84019383816002968781520301902090610d61565b9081546102ba81610eba565b936102c86040519586610cc5565b81855260009384528284208386019491855b8484106103af575050505050604051928184019082855251809152604084019160408260051b86010193926000965b8388106103165786860387f35b90919293948380600192603f198a820301865288519061039261036861035661034685518a86528a860190610e95565b8686015185820388870152610e95565b60408501518482036040860152610e95565b60608085015190840152608060ff81860151169084015260a0808501519084830390850152610e95565b9160c0809101511515910152970193019701969093929193610309565b60078660019260409a989a516103c481610ca9565b6103cd87610def565b81526103da858801610def565b838201526103e9868801610def565b60408201526003870154606082015260ff80600489015416608083015261041260058901610def565b60a0830152600688015416151560c08201528152019301930192919694966102da565b3461011c5760a036600319011261011c5767ffffffffffffffff60043581811161011c57610467903690600401610ce7565b9060243581811161011c57610480903690600401610ce7565b906044359060ff821680920361011c5760643590811161011c576104a8903690600401610ce7565b92608435936040519484516104e060ff60046020998a81818c01966104ce81838a610d3e565b8101600081520301902001541661100e565b8161050660405189818a516104f6818389610d3e565b8101600281520301902086610d61565b54111561068b5760ff600661053f8461053a6040518c818d5161052a81838c610d3e565b8101600281520301902089610d61565b611051565b5001541661064657816040518881895161055a818388610d3e565b8101600281520301902061056e9086610d61565b9061057891611051565b506004019260ff199386858254161790558260405189818a5161059c818389610d3e565b810160028152030190206105b09087610d61565b906105ba91611051565b50600501906105c891610ee9565b86604051808093895180926105dc92610d3e565b810160028152030190206105f09084610d61565b906105fa91611051565b5060060190815416600117905561061090610fee565b9161061a90610fee565b926040519182527f84edb7c20b02ea82e518b35456630e822a54829571e666fb9896b4a324e4223c91a3005b60405162461bcd60e51b815260048101889052601960248201527f5375626d697373696f6e20616c726561647920677261646564000000000000006044820152606490fd5b60405162461bcd60e51b815260048101889052601860248201527f496e76616c6964207375626d697373696f6e20696e64657800000000000000006044820152606490fd5b3461011c5760a036600319011261011c5767ffffffffffffffff60043581811161011c57610702903690600401610ce7565b9060243581811161011c5761071b903690600401610ce7565b9160443582811161011c57610734903690600401610ce7565b9160843581811161011c573660238201121561011c57806004013561075881610eba565b916107666040519384610cc5565b8183526024602084019260051b8201019136831161011c5760248201905b838210610a2b57505050506040519060ff6004855193602081818901966107ac81838a610d3e565b810160008152030190200154166109ef576040519260a0840190811184821017610943576040528583526020830185815261082f60408501916064358352606086019384526108256108136020608089019760018952604051809381928d51928391610d3e565b81016000815203019020965187610ee9565b5160018601610ee9565b51600284015551805190600160401b8211610943576003840154826003860155808310610976575b506020016003840160005260206000206000915b83831061095957505050509060046108939251151591019060ff801983541691151516179055565b60405160208184516108a88183858901610d3e565b810160018152030190208054600160401b811015610943576108cf91600182018155610d87565b61092d5761091361090d836109087f2d08bb8972d73403498ec264f70edd005da801455ebe63e265845018602fd9d29561092895610ee9565b610fee565b93610fee565b93604051918291602083526020830190610e95565b0390a3005b634e487b7160e01b600052600060045260246000fd5b634e487b7160e01b600052604160045260246000fd5b600160208261096a83945186610ee9565b0192019201919061086b565b600385016000526020600020908382015b8183018110610997575050610857565b806109a460019254610db5565b806109b1575b5001610987565b601f9081811184146109ca575050600081555b8b6109aa565b6109e660009284845260208420920160051c8201858301610ed2565b818355556109c4565b60405162461bcd60e51b8152602060048201526014602482015273546f70696320616c72656164792065786973747360601b6044820152606490fd5b813586811161011c57602091610a48839260243691880101610ce7565b815201910190610784565b3461011c57604036600319011261011c5760043567ffffffffffffffff811161011c57610a84903690600401610ce7565b610aa06020602435928160405193828580945193849201610d3e565b8101600181520301902090815481101561011c57610abd91610d87565b61092d57610acd610ae191610def565b604051918291602083526020830190610e95565b0390f35b3461011c57608036600319011261011c5767ffffffffffffffff60043581811161011c57610b17903690600401610ce7565b9060243581811161011c57610b30903690600401610ce7565b9060443581811161011c57610b49903690600401610ce7565b60405193835190610b6b60ff60046020988981818b01976104ce81838b610d3e565b60405190610b7882610ca9565b808252868201868152604083019285845260608101936064358552608082019560008752604051988b8a01908a821090821117610943576040526000895260a08301988952610bdf6104f68c60c0860193600085528d604051938492839251928391610d3e565b8054600160401b81101561094357610bfc91600182018155611051565b93909361092d577f317b266087532c01b689c235d20b5984906908d02447020a383951933a05e6b799610c949861090d98610c5c600696610c526109089a610c48610c7e98518c610ee9565b5160018b01610ee9565b5160028901610ee9565b51600387015560ff6004870191511660ff198254161790555160058501610ee9565b51151591019060ff801983541691151516179055565b93610928604051928284938452830190610e95565b60e0810190811067ffffffffffffffff82111761094357604052565b90601f8019910116810190811067ffffffffffffffff82111761094357604052565b81601f8201121561011c5780359067ffffffffffffffff82116109435760405192610d1c601f8401601f191660200185610cc5565b8284526020838301011161011c57816000926020809301838601378301015290565b60005b838110610d515750506000910152565b8181015183820152602001610d41565b602090610d7b928260405194838680955193849201610d3e565b82019081520301902090565b8054821015610d9f5760005260206000200190600090565b634e487b7160e01b600052603260045260246000fd5b90600182811c92168015610de5575b6020831014610dcf57565b634e487b7160e01b600052602260045260246000fd5b91607f1691610dc4565b9060405191826000825492610e0384610db5565b908184526001948581169081600014610e725750600114610e2f575b5050610e2d92500383610cc5565b565b9093915060005260209081600020936000915b818310610e5a575050610e2d93508201013880610e1f565b85548884018501529485019487945091830191610e42565b915050610e2d94506020925060ff191682840152151560051b8201013880610e1f565b90602091610eae81518092818552858086019101610d3e565b601f01601f1916010190565b67ffffffffffffffff81116109435760051b60200190565b818110610edd575050565b60008155600101610ed2565b919091825167ffffffffffffffff811161094357610f078254610db5565b601f8111610fb1575b50602080601f8311600114610f4d575081929394600092610f42575b50508160011b916000199060031b1c1916179055565b015190503880610f2c565b90601f198316958460005282600020926000905b888210610f9957505083600195969710610f80575b505050811b019055565b015160001960f88460031b161c19169055388080610f76565b80600185968294968601518155019501930190610f61565b610fde90836000526020600020601f840160051c81019160208510610fe4575b601f0160051c0190610ed2565b38610f10565b9091508190610fd1565b61100690602060405192828480945193849201610d3e565b810103902090565b1561101557565b60405162461bcd60e51b8152602060048201526014602482015273151bdc1a58c8191bd95cc81b9bdd08195e1a5cdd60621b6044820152606490fd5b8054821015610d9f57600052600760206000209102019060009056fea2646970667358221220f75347fef94960699f130fc3f4ce99acceb7ed76f58274b20cf6b70f7745b06464736f6c63430008130033","opcodes":"PUSH1 0x80 DUP1 PUSH1 0x40 MSTORE CALLVALUE PUSH2 0x16 JUMPI PUSH2 0x10A3 SWAP1 DUP2 PUSH2 0x1C DUP3 CODECOPY RETURN JUMPDEST PUSH1 0x0 DUP1 REVERT INVALID PUSH1 0x80 PUSH1 0x40 MSTORE PUSH1 0x4 CALLDATASIZE LT ISZERO PUSH2 0x12 JUMPI PUSH1 0x0 DUP1 REVERT JUMPDEST PUSH1 0xE0 PUSH1 0x0 CALLDATALOAD DUP2 SHR SWAP1 DUP2 PUSH4 0x56397C28 EQ PUSH2 0xAE5 JUMPI DUP2 PUSH4 0x60803594 EQ PUSH2 0xA53 JUMPI DUP2 PUSH4 0x6401C4CF EQ PUSH2 0x6D0 JUMPI DUP2 PUSH4 0xB2CBBCDE EQ PUSH2 0x435 JUMPI DUP2 PUSH4 0xC2E85EA7 EQ PUSH2 0x236 JUMPI POP DUP1 PUSH4 0xD831A67F EQ PUSH2 0x121 JUMPI PUSH4 0xF75C6C72 EQ PUSH2 0x6C JUMPI PUSH1 0x0 DUP1 REVERT JUMPDEST CALLVALUE PUSH2 0x11C JUMPI PUSH1 0x20 CALLDATASIZE PUSH1 0x3 NOT ADD SLT PUSH2 0x11C JUMPI PUSH1 0x4 CALLDATALOAD PUSH8 0xFFFFFFFFFFFFFFFF DUP2 GT PUSH2 0x11C JUMPI PUSH2 0xB8 PUSH1 0x20 PUSH2 0xA5 PUSH2 0xFD SWAP4 CALLDATASIZE SWAP1 PUSH1 0x4 ADD PUSH2 0xCE7 JUMP JUMPDEST DUP2 PUSH1 0x40 MLOAD SWAP4 DUP3 DUP6 DUP1 SWAP5 MLOAD SWAP4 DUP5 SWAP3 ADD PUSH2 0xD3E JUMP JUMPDEST DUP2 ADD PUSH1 0x0 DUP2 MSTORE SUB ADD SWAP1 KECCAK256 PUSH2 0xCB DUP2 PUSH2 0xDEF JUMP JUMPDEST SWAP1 PUSH2 0xD8 PUSH1 0x1 DUP3 ADD PUSH2 0xDEF JUMP JUMPDEST PUSH2 0x10B PUSH1 0xFF PUSH1 0x4 PUSH1 0x2 DUP6 ADD SLOAD SWAP5 ADD SLOAD AND SWAP2 PUSH1 0x40 MLOAD SWAP6 DUP7 SWAP6 PUSH1 0x80 DUP8 MSTORE PUSH1 0x80 DUP8 ADD SWAP1 PUSH2 0xE95 JUMP JUMPDEST SWAP1 DUP6 DUP3 SUB PUSH1 0x20 DUP8 ADD MSTORE PUSH2 0xE95 JUMP JUMPDEST SWAP2 PUSH1 0x40 DUP5 ADD MSTORE ISZERO ISZERO PUSH1 0x60 DUP4 ADD MSTORE SUB SWAP1 RETURN JUMPDEST PUSH1 0x0 DUP1 REVERT JUMPDEST CALLVALUE PUSH2 0x11C JUMPI PUSH1 0x20 DUP1 PUSH1 0x3 NOT CALLDATASIZE ADD SLT PUSH2 0x11C JUMPI PUSH1 0x4 CALLDATALOAD PUSH8 0xFFFFFFFFFFFFFFFF DUP2 GT PUSH2 0x11C JUMPI PUSH2 0x153 SWAP1 CALLDATASIZE SWAP1 PUSH1 0x4 ADD PUSH2 0xCE7 JUMP JUMPDEST SWAP1 DUP1 PUSH2 0x168 PUSH1 0x40 MLOAD SWAP4 DUP5 DUP2 MLOAD SWAP4 DUP5 SWAP3 ADD PUSH2 0xD3E JUMP JUMPDEST DUP3 ADD SWAP2 DUP2 DUP2 PUSH1 0x1 SWAP5 DUP6 DUP2 MSTORE SUB ADD SWAP1 KECCAK256 SWAP2 DUP3 SLOAD SWAP2 PUSH2 0x184 DUP4 PUSH2 0xEBA JUMP JUMPDEST SWAP3 PUSH2 0x192 PUSH1 0x40 MLOAD SWAP5 DUP6 PUSH2 0xCC5 JUMP JUMPDEST DUP1 DUP5 MSTORE DUP2 DUP5 ADD DUP1 SWAP6 PUSH1 0x0 MSTORE DUP3 PUSH1 0x0 KECCAK256 PUSH1 0x0 SWAP2 JUMPDEST DUP4 DUP4 LT PUSH2 0x20D JUMPI POP POP POP POP PUSH1 0x40 MLOAD SWAP3 DUP2 DUP5 ADD SWAP1 DUP3 DUP6 MSTORE MLOAD DUP1 SWAP2 MSTORE PUSH1 0x40 DUP5 ADD SWAP2 PUSH1 0x40 DUP3 PUSH1 0x5 SHL DUP7 ADD ADD SWAP6 SWAP3 PUSH1 0x0 SWAP1 JUMPDEST DUP4 DUP3 LT PUSH2 0x1E0 JUMPI DUP7 DUP9 SUB DUP8 RETURN JUMPDEST SWAP1 SWAP2 SWAP3 SWAP4 SWAP5 DUP4 DUP1 PUSH2 0x1FC DUP4 SWAP11 PUSH1 0x3F NOT DUP12 DUP3 SUB ADD DUP7 MSTORE DUP10 MLOAD PUSH2 0xE95 JUMP JUMPDEST SWAP10 SWAP8 ADD SWAP6 SWAP5 SWAP4 SWAP2 SWAP1 SWAP2 ADD SWAP2 ADD PUSH2 0x1D3 JUMP JUMPDEST SWAP1 DUP6 DUP1 DUP7 DUP2 SWAP11 SWAP9 SWAP6 SWAP5 PUSH2 0x222 DUP6 SWAP12 SWAP10 SWAP12 PUSH2 0xDEF JUMP JUMPDEST DUP2 MSTORE ADD SWAP3 ADD SWAP3 ADD SWAP3 POP SWAP7 SWAP5 SWAP7 SWAP6 SWAP4 SWAP6 PUSH2 0x1A5 JUMP JUMPDEST CALLVALUE PUSH2 0x11C JUMPI PUSH1 0x40 CALLDATASIZE PUSH1 0x3 NOT ADD SLT PUSH2 0x11C JUMPI PUSH8 0xFFFFFFFFFFFFFFFF PUSH1 0x4 CALLDATALOAD DUP2 DUP2 GT PUSH2 0x11C JUMPI PUSH2 0x268 SWAP1 CALLDATASIZE SWAP1 PUSH1 0x4 ADD PUSH2 0xCE7 JUMP JUMPDEST SWAP1 PUSH1 0x24 CALLDATALOAD SWAP1 DUP2 GT PUSH2 0x11C JUMPI PUSH2 0x281 SWAP1 CALLDATASIZE SWAP1 PUSH1 0x4 ADD PUSH2 0xCE7 JUMP JUMPDEST PUSH2 0x2AE PUSH1 0x40 MLOAD SWAP3 DUP3 MLOAD PUSH2 0x299 DUP2 DUP7 PUSH1 0x20 DUP1 SWAP8 ADD PUSH2 0xD3E JUMP JUMPDEST DUP5 ADD SWAP4 DUP4 DUP2 PUSH1 0x2 SWAP7 DUP8 DUP2 MSTORE SUB ADD SWAP1 KECCAK256 SWAP1 PUSH2 0xD61 JUMP JUMPDEST SWAP1 DUP2 SLOAD PUSH2 0x2BA DUP2 PUSH2 0xEBA JUMP JUMPDEST SWAP4 PUSH2 0x2C8 PUSH1 0x40 MLOAD SWAP6 DUP7 PUSH2 0xCC5 JUMP JUMPDEST DUP2 DUP6 MSTORE PUSH1 0x0 SWAP4 DUP5 MSTORE DUP3 DUP5 KECCAK256 DUP4 DUP7 ADD SWAP5 SWAP2 DUP6 JUMPDEST DUP5 DUP5 LT PUSH2 0x3AF JUMPI POP POP POP POP POP PUSH1 0x40 MLOAD SWAP3 DUP2 DUP5 ADD SWAP1 DUP3 DUP6 MSTORE MLOAD DUP1 SWAP2 MSTORE PUSH1 0x40 DUP5 ADD SWAP2 PUSH1 0x40 DUP3 PUSH1 0x5 SHL DUP7 ADD ADD SWAP4 SWAP3 PUSH1 0x0 SWAP7 JUMPDEST DUP4 DUP9 LT PUSH2 0x316 JUMPI DUP7 DUP7 SUB DUP8 RETURN JUMPDEST SWAP1 SWAP2 SWAP3 SWAP4 SWAP5 DUP4 DUP1 PUSH1 0x1 SWAP3 PUSH1 0x3F NOT DUP11 DUP3 SUB ADD DUP7 MSTORE DUP9 MLOAD SWAP1 PUSH2 0x392 PUSH2 0x368 PUSH2 0x356 PUSH2 0x346 DUP6 MLOAD DUP11 DUP7 MSTORE DUP11 DUP7 ADD SWAP1 PUSH2 0xE95 JUMP JUMPDEST DUP7 DUP7 ADD MLOAD DUP6 DUP3 SUB DUP9 DUP8 ADD MSTORE PUSH2 0xE95 JUMP JUMPDEST PUSH1 0x40 DUP6 ADD MLOAD DUP5 DUP3 SUB PUSH1 0x40 DUP7 ADD MSTORE PUSH2 0xE95 JUMP JUMPDEST PUSH1 0x60 DUP1 DUP6 ADD MLOAD SWAP1 DUP5 ADD MSTORE PUSH1 0x80 PUSH1 0xFF DUP2 DUP7 ADD MLOAD AND SWAP1 DUP5 ADD MSTORE PUSH1 0xA0 DUP1 DUP6 ADD MLOAD SWAP1 DUP5 DUP4 SUB SWAP1 DUP6 ADD MSTORE PUSH2 0xE95 JUMP JUMPDEST SWAP2 PUSH1 0xC0 DUP1 SWAP2 ADD MLOAD ISZERO ISZERO SWAP2 ADD MSTORE SWAP8 ADD SWAP4 ADD SWAP8 ADD SWAP7 SWAP1 SWAP4 SWAP3 SWAP2 SWAP4 PUSH2 0x309 JUMP JUMPDEST PUSH1 0x7 DUP7 PUSH1 0x1 SWAP3 PUSH1 0x40 SWAP11 SWAP9 SWAP11 MLOAD PUSH2 0x3C4 DUP2 PUSH2 0xCA9 JUMP JUMPDEST PUSH2 0x3CD DUP8 PUSH2 0xDEF JUMP JUMPDEST DUP2 MSTORE PUSH2 0x3DA DUP6 DUP9 ADD PUSH2 0xDEF JUMP JUMPDEST DUP4 DUP3 ADD MSTORE PUSH2 0x3E9 DUP7 DUP9 ADD PUSH2 0xDEF JUMP JUMPDEST PUSH1 0x40 DUP3 ADD MSTORE PUSH1 0x3 DUP8 ADD SLOAD PUSH1 0x60 DUP3 ADD MSTORE PUSH1 0xFF DUP1 PUSH1 0x4 DUP10 ADD SLOAD AND PUSH1 0x80 DUP4 ADD MSTORE PUSH2 0x412 PUSH1 0x5 DUP10 ADD PUSH2 0xDEF JUMP JUMPDEST PUSH1 0xA0 DUP4 ADD MSTORE PUSH1 0x6 DUP9 ADD SLOAD AND ISZERO ISZERO PUSH1 0xC0 DUP3 ADD MSTORE DUP2 MSTORE ADD SWAP4 ADD SWAP4 ADD SWAP3 SWAP2 SWAP7 SWAP5 SWAP7 PUSH2 0x2DA JUMP JUMPDEST CALLVALUE PUSH2 0x11C JUMPI PUSH1 0xA0 CALLDATASIZE PUSH1 0x3 NOT ADD SLT PUSH2 0x11C JUMPI PUSH8 0xFFFFFFFFFFFFFFFF PUSH1 0x4 CALLDATALOAD DUP2 DUP2 GT PUSH2 0x11C JUMPI PUSH2 0x467 SWAP1 CALLDATASIZE SWAP1 PUSH1 0x4 ADD PUSH2 0xCE7 JUMP JUMPDEST SWAP1 PUSH1 0x24 CALLDATALOAD DUP2 DUP2 GT PUSH2 0x11C JUMPI PUSH2 0x480 SWAP1 CALLDATASIZE SWAP1 PUSH1 0x4 ADD PUSH2 0xCE7 JUMP JUMPDEST SWAP1 PUSH1 0x44 CALLDATALOAD SWAP1 PUSH1 0xFF DUP3 AND DUP1 SWAP3 SUB PUSH2 0x11C JUMPI PUSH1 0x64 CALLDATALOAD SWAP1 DUP2 GT PUSH2 0x11C JUMPI PUSH2 0x4A8 SWAP1 CALLDATASIZE SWAP1 PUSH1 0x4 ADD PUSH2 0xCE7 JUMP JUMPDEST SWAP3 PUSH1 0x84 CALLDATALOAD SWAP4 PUSH1 0x40 MLOAD SWAP5 DUP5 MLOAD PUSH2 0x4E0 PUSH1 0xFF PUSH1 0x4 PUSH1 0x20 SWAP10 DUP11 DUP2 DUP2 DUP13 ADD SWAP7 PUSH2 0x4CE DUP2 DUP4 DUP11 PUSH2 0xD3E JUMP JUMPDEST DUP2 ADD PUSH1 0x0 DUP2 MSTORE SUB ADD SWAP1 KECCAK256 ADD SLOAD AND PUSH2 0x100E JUMP JUMPDEST DUP2 PUSH2 0x506 PUSH1 0x40 MLOAD DUP10 DUP2 DUP11 MLOAD PUSH2 0x4F6 DUP2 DUP4 DUP10 PUSH2 0xD3E JUMP JUMPDEST DUP2 ADD PUSH1 0x2 DUP2 MSTORE SUB ADD SWAP1 KECCAK256 DUP7 PUSH2 0xD61 JUMP JUMPDEST SLOAD GT ISZERO PUSH2 0x68B JUMPI PUSH1 0xFF PUSH1 0x6 PUSH2 0x53F DUP5 PUSH2 0x53A PUSH1 0x40 MLOAD DUP13 DUP2 DUP14 MLOAD PUSH2 0x52A DUP2 DUP4 DUP13 PUSH2 0xD3E JUMP JUMPDEST DUP2 ADD PUSH1 0x2 DUP2 MSTORE SUB ADD SWAP1 KECCAK256 DUP10 PUSH2 0xD61 JUMP JUMPDEST PUSH2 0x1051 JUMP JUMPDEST POP ADD SLOAD AND PUSH2 0x646 JUMPI DUP2 PUSH1 0x40 MLOAD DUP9 DUP2 DUP10 MLOAD PUSH2 0x55A DUP2 DUP4 DUP9 PUSH2 0xD3E JUMP JUMPDEST DUP2 ADD PUSH1 0x2 DUP2 MSTORE SUB ADD SWAP1 KECCAK256 PUSH2 0x56E SWAP1 DUP7 PUSH2 0xD61 JUMP JUMPDEST SWAP1 PUSH2 0x578 SWAP2 PUSH2 0x1051 JUMP JUMPDEST POP PUSH1 0x4 ADD SWAP3 PUSH1 0xFF NOT SWAP4 DUP7 DUP6 DUP3 SLOAD AND OR SWAP1 SSTORE DUP3 PUSH1 0x40 MLOAD DUP10 DUP2 DUP11 MLOAD PUSH2 0x59C DUP2 DUP4 DUP10 PUSH2 0xD3E JUMP JUMPDEST DUP2 ADD PUSH1 0x2 DUP2 MSTORE SUB ADD SWAP1 KECCAK256 PUSH2 0x5B0 SWAP1 DUP8 PUSH2 0xD61 JUMP JUMPDEST SWAP1 PUSH2 0x5BA SWAP2 PUSH2 0x1051 JUMP JUMPDEST POP PUSH1 0x5 ADD SWAP1 PUSH2 0x5C8 SWAP2 PUSH2 0xEE9 JUMP JUMPDEST DUP7 PUSH1 0x40 MLOAD DUP1 DUP1 SWAP4 DUP10 MLOAD DUP1 SWAP3 PUSH2 0x5DC SWAP3 PUSH2 0xD3E JUMP JUMPDEST DUP2 ADD PUSH1 0x2 DUP2 MSTORE SUB ADD SWAP1 KECCAK256 PUSH2 0x5F0 SWAP1 DUP5 PUSH2 0xD61 JUMP JUMPDEST SWAP1 PUSH2 0x5FA SWAP2 PUSH2 0x1051 JUMP JUMPDEST POP PUSH1 0x6 ADD SWAP1 DUP2 SLOAD AND PUSH1 0x1 OR SWAP1 SSTORE PUSH2 0x610 SWAP1 PUSH2 0xFEE JUMP JUMPDEST SWAP2 PUSH2 0x61A SWAP1 PUSH2 0xFEE JUMP JUMPDEST SWAP3 PUSH1 0x40 MLOAD SWAP2 DUP3 MSTORE PUSH32 0x84EDB7C20B02EA82E518B35456630E822A54829571E666FB9896B4A324E4223C SWAP2 LOG3 STOP JUMPDEST PUSH1 0x40 MLOAD PUSH3 0x461BCD PUSH1 0xE5 SHL DUP2 MSTORE PUSH1 0x4 DUP2 ADD DUP9 SWAP1 MSTORE PUSH1 0x19 PUSH1 0x24 DUP3 ADD MSTORE PUSH32 0x5375626D697373696F6E20616C72656164792067726164656400000000000000 PUSH1 0x44 DUP3 ADD MSTORE PUSH1 0x64 SWAP1 REVERT JUMPDEST PUSH1 0x40 MLOAD PUSH3 0x461BCD PUSH1 0xE5 SHL DUP2 MSTORE PUSH1 0x4 DUP2 ADD DUP9 SWAP1 MSTORE PUSH1 0x18 PUSH1 0x24 DUP3 ADD MSTORE PUSH32 0x496E76616C6964207375626D697373696F6E20696E6465780000000000000000 PUSH1 0x44 DUP3 ADD MSTORE PUSH1 0x64 SWAP1 REVERT JUMPDEST CALLVALUE PUSH2 0x11C JUMPI PUSH1 0xA0 CALLDATASIZE PUSH1 0x3 NOT ADD SLT PUSH2 0x11C JUMPI PUSH8 0xFFFFFFFFFFFFFFFF PUSH1 0x4 CALLDATALOAD DUP2 DUP2 GT PUSH2 0x11C JUMPI PUSH2 0x702 SWAP1 CALLDATASIZE SWAP1 PUSH1 0x4 ADD PUSH2 0xCE7 JUMP JUMPDEST SWAP1 PUSH1 0x24 CALLDATALOAD DUP2 DUP2 GT PUSH2 0x11C JUMPI PUSH2 0x71B SWAP1 CALLDATASIZE SWAP1 PUSH1 0x4 ADD PUSH2 0xCE7 JUMP JUMPDEST SWAP2 PUSH1 0x44 CALLDATALOAD DUP3 DUP2 GT PUSH2 0x11C JUMPI PUSH2 0x734 SWAP1 CALLDATASIZE SWAP1 PUSH1 0x4 ADD PUSH2 0xCE7 JUMP JUMPDEST SWAP2 PUSH1 0x84 CALLDATALOAD DUP2 DUP2 GT PUSH2 0x11C JUMPI CALLDATASIZE PUSH1 0x23 DUP3 ADD SLT ISZERO PUSH2 0x11C JUMPI DUP1 PUSH1 0x4 ADD CALLDATALOAD PUSH2 0x758 DUP2 PUSH2 0xEBA JUMP JUMPDEST SWAP2 PUSH2 0x766 PUSH1 0x40 MLOAD SWAP4 DUP5 PUSH2 0xCC5 JUMP JUMPDEST DUP2 DUP4 MSTORE PUSH1 0x24 PUSH1 0x20 DUP5 ADD SWAP3 PUSH1 0x5 SHL DUP3 ADD ADD SWAP2 CALLDATASIZE DUP4 GT PUSH2 0x11C JUMPI PUSH1 0x24 DUP3 ADD SWAP1 JUMPDEST DUP4 DUP3 LT PUSH2 0xA2B JUMPI POP POP POP POP PUSH1 0x40 MLOAD SWAP1 PUSH1 0xFF PUSH1 0x4 DUP6 MLOAD SWAP4 PUSH1 0x20 DUP2 DUP2 DUP10 ADD SWAP7 PUSH2 0x7AC DUP2 DUP4 DUP11 PUSH2 0xD3E JUMP JUMPDEST DUP2 ADD PUSH1 0x0 DUP2 MSTORE SUB ADD SWAP1 KECCAK256 ADD SLOAD AND PUSH2 0x9EF JUMPI PUSH1 0x40 MLOAD SWAP3 PUSH1 0xA0 DUP5 ADD SWAP1 DUP2 GT DUP5 DUP3 LT OR PUSH2 0x943 JUMPI PUSH1 0x40 MSTORE DUP6 DUP4 MSTORE PUSH1 0x20 DUP4 ADD DUP6 DUP2 MSTORE PUSH2 0x82F PUSH1 0x40 DUP6 ADD SWAP2 PUSH1 0x64 CALLDATALOAD DUP4 MSTORE PUSH1 0x60 DUP7 ADD SWAP4 DUP5 MSTORE PUSH2 0x825 PUSH2 0x813 PUSH1 0x20 PUSH1 0x80 DUP10 ADD SWAP8 PUSH1 0x1 DUP10 MSTORE PUSH1 0x40 MLOAD DUP1 SWAP4 DUP2 SWAP3 DUP14 MLOAD SWAP3 DUP4 SWAP2 PUSH2 0xD3E JUMP JUMPDEST DUP2 ADD PUSH1 0x0 DUP2 MSTORE SUB ADD SWAP1 KECCAK256 SWAP7 MLOAD DUP8 PUSH2 0xEE9 JUMP JUMPDEST MLOAD PUSH1 0x1 DUP7 ADD PUSH2 0xEE9 JUMP JUMPDEST MLOAD PUSH1 0x2 DUP5 ADD SSTORE MLOAD DUP1 MLOAD SWAP1 PUSH1 0x1 PUSH1 0x40 SHL DUP3 GT PUSH2 0x943 JUMPI PUSH1 0x3 DUP5 ADD SLOAD DUP3 PUSH1 0x3 DUP7 ADD SSTORE DUP1 DUP4 LT PUSH2 0x976 JUMPI JUMPDEST POP PUSH1 0x20 ADD PUSH1 0x3 DUP5 ADD PUSH1 0x0 MSTORE PUSH1 0x20 PUSH1 0x0 KECCAK256 PUSH1 0x0 SWAP2 JUMPDEST DUP4 DUP4 LT PUSH2 0x959 JUMPI POP POP POP POP SWAP1 PUSH1 0x4 PUSH2 0x893 SWAP3 MLOAD ISZERO ISZERO SWAP2 ADD SWAP1 PUSH1 0xFF DUP1 NOT DUP4 SLOAD AND SWAP2 ISZERO ISZERO AND OR SWAP1 SSTORE JUMP JUMPDEST PUSH1 0x40 MLOAD PUSH1 0x20 DUP2 DUP5 MLOAD PUSH2 0x8A8 DUP2 DUP4 DUP6 DUP10 ADD PUSH2 0xD3E JUMP JUMPDEST DUP2 ADD PUSH1 0x1 DUP2 MSTORE SUB ADD SWAP1 KECCAK256 DUP1 SLOAD PUSH1 0x1 PUSH1 0x40 SHL DUP2 LT ISZERO PUSH2 0x943 JUMPI PUSH2 0x8CF SWAP2 PUSH1 0x1 DUP3 ADD DUP2 SSTORE PUSH2 0xD87 JUMP JUMPDEST PUSH2 0x92D JUMPI PUSH2 0x913 PUSH2 0x90D DUP4 PUSH2 0x908 PUSH32 0x2D08BB8972D73403498EC264F70EDD005DA801455EBE63E265845018602FD9D2 SWAP6 PUSH2 0x928 SWAP6 PUSH2 0xEE9 JUMP JUMPDEST PUSH2 0xFEE JUMP JUMPDEST SWAP4 PUSH2 0xFEE JUMP JUMPDEST SWAP4 PUSH1 0x40 MLOAD SWAP2 DUP3 SWAP2 PUSH1 0x20 DUP4 MSTORE PUSH1 0x20 DUP4 ADD SWAP1 PUSH2 0xE95 JUMP JUMPDEST SUB SWAP1 LOG3 STOP JUMPDEST PUSH4 0x4E487B71 PUSH1 0xE0 SHL PUSH1 0x0 MSTORE PUSH1 0x0 PUSH1 0x4 MSTORE PUSH1 0x24 PUSH1 0x0 REVERT JUMPDEST PUSH4 0x4E487B71 PUSH1 0xE0 SHL PUSH1 0x0 MSTORE PUSH1 0x41 PUSH1 0x4 MSTORE PUSH1 0x24 PUSH1 0x0 REVERT JUMPDEST PUSH1 0x1 PUSH1 0x20 DUP3 PUSH2 0x96A DUP4 SWAP5 MLOAD DUP7 PUSH2 0xEE9 JUMP JUMPDEST ADD SWAP3 ADD SWAP3 ADD SWAP2 SWAP1 PUSH2 0x86B JUMP JUMPDEST PUSH1 0x3 DUP6 ADD PUSH1 0x0 MSTORE PUSH1 0x20 PUSH1 0x0 KECCAK256 SWAP1 DUP4 DUP3 ADD JUMPDEST DUP2 DUP4 ADD DUP2 LT PUSH2 0x997 JUMPI POP POP PUSH2 0x857 JUMP JUMPDEST DUP1 PUSH2 0x9A4 PUSH1 0x1 SWAP3 SLOAD PUSH2 0xDB5 JUMP JUMPDEST DUP1 PUSH2 0x9B1 JUMPI JUMPDEST POP ADD PUSH2 0x987 JUMP JUMPDEST PUSH1 0x1F SWAP1 DUP2 DUP2 GT DUP5 EQ PUSH2 0x9CA JUMPI POP POP PUSH1 0x0 DUP2 SSTORE JUMPDEST DUP12 PUSH2 0x9AA JUMP JUMPDEST PUSH2 0x9E6 PUSH1 0x0 SWAP3 DUP5 DUP5 MSTORE PUSH1 0x20 DUP5 KECCAK256 SWAP3 ADD PUSH1 0x5 SHR DUP3 ADD DUP6 DUP4 ADD PUSH2 0xED2 JUMP JUMPDEST DUP2 DUP4 SSTORE SSTORE PUSH2 0x9C4 JUMP JUMPDEST PUSH1 0x40 MLOAD PUSH3 0x461BCD PUSH1 0xE5 SHL DUP2 MSTORE PUSH1 0x20 PUSH1 0x4 DUP3 ADD MSTORE PUSH1 0x14 PUSH1 0x24 DUP3 ADD MSTORE PUSH20 0x546F70696320616C726561647920657869737473 PUSH1 0x60 SHL PUSH1 0x44 DUP3 ADD MSTORE PUSH1 0x64 SWAP1 REVERT JUMPDEST DUP2 CALLDATALOAD DUP7 DUP2 GT PUSH2 0x11C JUMPI PUSH1 0x20 SWAP2 PUSH2 0xA48 DUP4 SWAP3 PUSH1 0x24 CALLDATASIZE SWAP2 DUP9 ADD ADD PUSH2 0xCE7 JUMP JUMPDEST DUP2 MSTORE ADD SWAP2 ADD SWAP1 PUSH2 0x784 JUMP JUMPDEST CALLVALUE PUSH2 0x11C JUMPI PUSH1 0x40 CALLDATASIZE PUSH1 0x3 NOT ADD SLT PUSH2 0x11C JUMPI PUSH1 0x4 CALLDATALOAD PUSH8 0xFFFFFFFFFFFFFFFF DUP2 GT PUSH2 0x11C JUMPI PUSH2 0xA84 SWAP1 CALLDATASIZE SWAP1 PUSH1 0x4 ADD PUSH2 0xCE7 JUMP JUMPDEST PUSH2 0xAA0 PUSH1 0x20 PUSH1 0x24 CALLDATALOAD SWAP3 DUP2 PUSH1 0x40 MLOAD SWAP4 DUP3 DUP6 DUP1 SWAP5 MLOAD SWAP4 DUP5 SWAP3 ADD PUSH2 0xD3E JUMP JUMPDEST DUP2 ADD PUSH1 0x1 DUP2 MSTORE SUB ADD SWAP1 KECCAK256 SWAP1 DUP2 SLOAD DUP2 LT ISZERO PUSH2 0x11C JUMPI PUSH2 0xABD SWAP2 PUSH2 0xD87 JUMP JUMPDEST PUSH2 0x92D JUMPI PUSH2 0xACD PUSH2 0xAE1 SWAP2 PUSH2 0xDEF JUMP JUMPDEST PUSH1 0x40 MLOAD SWAP2 DUP3 SWAP2 PUSH1 0x20 DUP4 MSTORE PUSH1 0x20 DUP4 ADD SWAP1 PUSH2 0xE95 JUMP JUMPDEST SUB SWAP1 RETURN JUMPDEST CALLVALUE PUSH2 0x11C JUMPI PUSH1 0x80 CALLDATASIZE PUSH1 0x3 NOT ADD SLT PUSH2 0x11C JUMPI PUSH8 0xFFFFFFFFFFFFFFFF PUSH1 0x4 CALLDATALOAD DUP2 DUP2 GT PUSH2 0x11C JUMPI PUSH2 0xB17 SWAP1 CALLDATASIZE SWAP1 PUSH1 0x4 ADD PUSH2 0xCE7 JUMP JUMPDEST SWAP1 PUSH1 0x24 CALLDATALOAD DUP2 DUP2 GT PUSH2 0x11C JUMPI PUSH2 0xB30 SWAP1 CALLDATASIZE SWAP1 PUSH1 0x4 ADD PUSH2 0xCE7 JUMP JUMPDEST SWAP1 PUSH1 0x44 CALLDATALOAD DUP2 DUP2 GT PUSH2 0x11C JUMPI PUSH2 0xB49 SWAP1 CALLDATASIZE SWAP1 PUSH1 0x4 ADD PUSH2 0xCE7 JUMP JUMPDEST PUSH1 0x40 MLOAD SWAP4 DUP4 MLOAD SWAP1 PUSH2 0xB6B PUSH1 0xFF PUSH1 0x4 PUSH1 0x20 SWAP9 DUP10 DUP2 DUP2 DUP12 ADD SWAP8 PUSH2 0x4CE DUP2 DUP4 DUP12 PUSH2 0xD3E JUMP JUMPDEST PUSH1 0x40 MLOAD SWAP1 PUSH2 0xB78 DUP3 PUSH2 0xCA9 JUMP JUMPDEST DUP1 DUP3 MSTORE DUP7 DUP3 ADD DUP7 DUP2 MSTORE PUSH1 0x40 DUP4 ADD SWAP3 DUP6 DUP5 MSTORE PUSH1 0x60 DUP2 ADD SWAP4 PUSH1 0x64 CALLDATALOAD DUP6 MSTORE PUSH1 0x80 DUP3 ADD SWAP6 PUSH1 0x0 DUP8 MSTORE PUSH1 0x40 MLOAD SWAP9 DUP12 DUP11 ADD SWAP1 DUP11 DUP3 LT SWAP1 DUP3 GT OR PUSH2 0x943 JUMPI PUSH1 0x40 MSTORE PUSH1 0x0 DUP10 MSTORE PUSH1 0xA0 DUP4 ADD SWAP9 DUP10 MSTORE PUSH2 0xBDF PUSH2 0x4F6 DUP13 PUSH1 0xC0 DUP7 ADD SWAP4 PUSH1 0x0 DUP6 MSTORE DUP14 PUSH1 0x40 MLOAD SWAP4 DUP5 SWAP3 DUP4 SWAP3 MLOAD SWAP3 DUP4 SWAP2 PUSH2 0xD3E JUMP JUMPDEST DUP1 SLOAD PUSH1 0x1 PUSH1 0x40 SHL DUP2 LT ISZERO PUSH2 0x943 JUMPI PUSH2 0xBFC SWAP2 PUSH1 0x1 DUP3 ADD DUP2 SSTORE PUSH2 0x1051 JUMP JUMPDEST SWAP4 SWAP1 SWAP4 PUSH2 0x92D JUMPI PUSH32 0x317B266087532C01B689C235D20B5984906908D02447020A383951933A05E6B7 SWAP10 PUSH2 0xC94 SWAP9 PUSH2 0x90D SWAP9 PUSH2 0xC5C PUSH1 0x6 SWAP7 PUSH2 0xC52 PUSH2 0x908 SWAP11 PUSH2 0xC48 PUSH2 0xC7E SWAP9 MLOAD DUP13 PUSH2 0xEE9 JUMP JUMPDEST MLOAD PUSH1 0x1 DUP12 ADD PUSH2 0xEE9 JUMP JUMPDEST MLOAD PUSH1 0x2 DUP10 ADD PUSH2 0xEE9 JUMP JUMPDEST MLOAD PUSH1 0x3 DUP8 ADD SSTORE PUSH1 0xFF PUSH1 0x4 DUP8 ADD SWAP2 MLOAD AND PUSH1 0xFF NOT DUP3 SLOAD AND OR SWAP1 SSTORE MLOAD PUSH1 0x5 DUP6 ADD PUSH2 0xEE9 JUMP JUMPDEST MLOAD ISZERO ISZERO SWAP2 ADD SWAP1 PUSH1 0xFF DUP1 NOT DUP4 SLOAD AND SWAP2 ISZERO ISZERO AND OR SWAP1 SSTORE JUMP JUMPDEST SWAP4 PUSH2 0x928 PUSH1 0x40 MLOAD SWAP3 DUP3 DUP5 SWAP4 DUP5 MSTORE DUP4 ADD SWAP1 PUSH2 0xE95 JUMP JUMPDEST PUSH1 0xE0 DUP2 ADD SWAP1 DUP2 LT PUSH8 0xFFFFFFFFFFFFFFFF DUP3 GT OR PUSH2 0x943 JUMPI PUSH1 0x40 MSTORE JUMP JUMPDEST SWAP1 PUSH1 0x1F DUP1 NOT SWAP2 ADD AND DUP2 ADD SWAP1 DUP2 LT PUSH8 0xFFFFFFFFFFFFFFFF DUP3 GT OR PUSH2 0x943 JUMPI PUSH1 0x40 MSTORE JUMP JUMPDEST DUP2 PUSH1 0x1F DUP3 ADD SLT ISZERO PUSH2 0x11C JUMPI DUP1 CALLDATALOAD SWAP1 PUSH8 0xFFFFFFFFFFFFFFFF DUP3 GT PUSH2 0x943 JUMPI PUSH1 0x40 MLOAD SWAP3 PUSH2 0xD1C PUSH1 0x1F DUP5 ADD PUSH1 0x1F NOT AND PUSH1 0x20 ADD DUP6 PUSH2 0xCC5 JUMP JUMPDEST DUP3 DUP5 MSTORE PUSH1 0x20 DUP4 DUP4 ADD ADD GT PUSH2 0x11C JUMPI DUP2 PUSH1 0x0 SWAP3 PUSH1 0x20 DUP1 SWAP4 ADD DUP4 DUP7 ADD CALLDATACOPY DUP4 ADD ADD MSTORE SWAP1 JUMP JUMPDEST PUSH1 0x0 JUMPDEST DUP4 DUP2 LT PUSH2 0xD51 JUMPI POP POP PUSH1 0x0 SWAP2 ADD MSTORE JUMP JUMPDEST DUP2 DUP2 ADD MLOAD DUP4 DUP3 ADD MSTORE PUSH1 0x20 ADD PUSH2 0xD41 JUMP JUMPDEST PUSH1 0x20 SWAP1 PUSH2 0xD7B SWAP3 DUP3 PUSH1 0x40 MLOAD SWAP5 DUP4 DUP7 DUP1 SWAP6 MLOAD SWAP4 DUP5 SWAP3 ADD PUSH2 0xD3E JUMP JUMPDEST DUP3 ADD SWAP1 DUP2 MSTORE SUB ADD SWAP1 KECCAK256 SWAP1 JUMP JUMPDEST DUP1 SLOAD DUP3 LT ISZERO PUSH2 0xD9F JUMPI PUSH1 0x0 MSTORE PUSH1 0x20 PUSH1 0x0 KECCAK256 ADD SWAP1 PUSH1 0x0 SWAP1 JUMP JUMPDEST PUSH4 0x4E487B71 PUSH1 0xE0 SHL PUSH1 0x0 MSTORE PUSH1 0x32 PUSH1 0x4 MSTORE PUSH1 0x24 PUSH1 0x0 REVERT JUMPDEST SWAP1 PUSH1 0x1 DUP3 DUP2 SHR SWAP3 AND DUP1 ISZERO PUSH2 0xDE5 JUMPI JUMPDEST PUSH1 0x20 DUP4 LT EQ PUSH2 0xDCF JUMPI JUMP JUMPDEST PUSH4 0x4E487B71 PUSH1 0xE0 SHL PUSH1 0x0 MSTORE PUSH1 0x22 PUSH1 0x4 MSTORE PUSH1 0x24 PUSH1 0x0 REVERT JUMPDEST SWAP2 PUSH1 0x7F AND SWAP2 PUSH2 0xDC4 JUMP JUMPDEST SWAP1 PUSH1 0x40 MLOAD SWAP2 DUP3 PUSH1 0x0 DUP3 SLOAD SWAP3 PUSH2 0xE03 DUP5 PUSH2 0xDB5 JUMP JUMPDEST SWAP1 DUP2 DUP5 MSTORE PUSH1 0x1 SWAP5 DUP6 DUP2 AND SWAP1 DUP2 PUSH1 0x0 EQ PUSH2 0xE72 JUMPI POP PUSH1 0x1 EQ PUSH2 0xE2F JUMPI JUMPDEST POP POP PUSH2 0xE2D SWAP3 POP SUB DUP4 PUSH2 0xCC5 JUMP JUMPDEST JUMP JUMPDEST SWAP1 SWAP4 SWAP2 POP PUSH1 0x0 MSTORE PUSH1 0x20 SWAP1 DUP2 PUSH1 0x0 KECCAK256 SWAP4 PUSH1 0x0 SWAP2 JUMPDEST DUP2 DUP4 LT PUSH2 0xE5A JUMPI POP POP PUSH2 0xE2D SWAP4 POP DUP3 ADD ADD CODESIZE DUP1 PUSH2 0xE1F JUMP JUMPDEST DUP6 SLOAD DUP9 DUP5 ADD DUP6 ADD MSTORE SWAP5 DUP6 ADD SWAP5 DUP8 SWAP5 POP SWAP2 DUP4 ADD SWAP2 PUSH2 0xE42 JUMP JUMPDEST SWAP2 POP POP PUSH2 0xE2D SWAP5 POP PUSH1 0x20 SWAP3 POP PUSH1 0xFF NOT AND DUP3 DUP5 ADD MSTORE ISZERO ISZERO PUSH1 0x5 SHL DUP3 ADD ADD CODESIZE DUP1 PUSH2 0xE1F JUMP JUMPDEST SWAP1 PUSH1 0x20 SWAP2 PUSH2 0xEAE DUP2 MLOAD DUP1 SWAP3 DUP2 DUP6 MSTORE DUP6 DUP1 DUP7 ADD SWAP2 ADD PUSH2 0xD3E JUMP JUMPDEST PUSH1 0x1F ADD PUSH1 0x1F NOT AND ADD ADD SWAP1 JUMP JUMPDEST PUSH8 0xFFFFFFFFFFFFFFFF DUP2 GT PUSH2 0x943 JUMPI PUSH1 0x5 SHL PUSH1 0x20 ADD SWAP1 JUMP JUMPDEST DUP2 DUP2 LT PUSH2 0xEDD JUMPI POP POP JUMP JUMPDEST PUSH1 0x0 DUP2 SSTORE PUSH1 0x1 ADD PUSH2 0xED2 JUMP JUMPDEST SWAP2 SWAP1 SWAP2 DUP3 MLOAD PUSH8 0xFFFFFFFFFFFFFFFF DUP2 GT PUSH2 0x943 JUMPI PUSH2 0xF07 DUP3 SLOAD PUSH2 0xDB5 JUMP JUMPDEST PUSH1 0x1F DUP2 GT PUSH2 0xFB1 JUMPI JUMPDEST POP PUSH1 0x20 DUP1 PUSH1 0x1F DUP4 GT PUSH1 0x1 EQ PUSH2 0xF4D JUMPI POP DUP2 SWAP3 SWAP4 SWAP5 PUSH1 0x0 SWAP3 PUSH2 0xF42 JUMPI JUMPDEST POP POP DUP2 PUSH1 0x1 SHL SWAP2 PUSH1 0x0 NOT SWAP1 PUSH1 0x3 SHL SHR NOT AND OR SWAP1 SSTORE JUMP JUMPDEST ADD MLOAD SWAP1 POP CODESIZE DUP1 PUSH2 0xF2C JUMP JUMPDEST SWAP1 PUSH1 0x1F NOT DUP4 AND SWAP6 DUP5 PUSH1 0x0 MSTORE DUP3 PUSH1 0x0 KECCAK256 SWAP3 PUSH1 0x0 SWAP1 JUMPDEST DUP9 DUP3 LT PUSH2 0xF99 JUMPI POP POP DUP4 PUSH1 0x1 SWAP6 SWAP7 SWAP8 LT PUSH2 0xF80 JUMPI JUMPDEST POP POP POP DUP2 SHL ADD SWAP1 SSTORE JUMP JUMPDEST ADD MLOAD PUSH1 0x0 NOT PUSH1 0xF8 DUP5 PUSH1 0x3 SHL AND SHR NOT AND SWAP1 SSTORE CODESIZE DUP1 DUP1 PUSH2 0xF76 JUMP JUMPDEST DUP1 PUSH1 0x1 DUP6 SWAP7 DUP3 SWAP5 SWAP7 DUP7 ADD MLOAD DUP2 SSTORE ADD SWAP6 ADD SWAP4 ADD SWAP1 PUSH2 0xF61 JUMP JUMPDEST PUSH2 0xFDE SWAP1 DUP4 PUSH1 0x0 MSTORE PUSH1 0x20 PUSH1 0x0 KECCAK256 PUSH1 0x1F DUP5 ADD PUSH1 0x5 SHR DUP2 ADD SWAP2 PUSH1 0x20 DUP6 LT PUSH2 0xFE4 JUMPI JUMPDEST PUSH1 0x1F ADD PUSH1 0x5 SHR ADD SWAP1 PUSH2 0xED2 JUMP JUMPDEST CODESIZE PUSH2 0xF10 JUMP JUMPDEST SWAP1 SWAP2 POP DUP2 SWAP1 PUSH2 0xFD1 JUMP JUMPDEST PUSH2 0x1006 SWAP1 PUSH1 0x20 PUSH1 0x40 MLOAD SWAP3 DUP3 DUP5 DUP1 SWAP5 MLOAD SWAP4 DUP5 SWAP3 ADD PUSH2 0xD3E JUMP JUMPDEST DUP2 ADD SUB SWAP1 KECCAK256 SWAP1 JUMP JUMPDEST ISZERO PUSH2 0x1015 JUMPI JUMP JUMPDEST PUSH1 0x40 MLOAD PUSH3 0x461BCD PUSH1 0xE5 SHL DUP2 MSTORE PUSH1 0x20 PUSH1 0x4 DUP3 ADD MSTORE PUSH1 0x14 PUSH1 0x24 DUP3 ADD MSTORE PUSH20 0x151BDC1A58C8191BD95CC81B9BDD08195E1A5CDD PUSH1 0x62 SHL PUSH1 0x44 DUP3 ADD MSTORE PUSH1 0x64 SWAP1 REVERT JUMPDEST DUP1 SLOAD DUP3 LT ISZERO PUSH2 0xD9F JUMPI PUSH1 0x0 MSTORE PUSH1 0x7 PUSH1 0x20 PUSH1 0x0 KECCAK256 SWAP2 MUL ADD SWAP1 PUSH1 0x0 SWAP1 JUMP INVALID LOG2 PUSH5 0x6970667358 0x22 SLT KECCAK256 0xF7 MSTORE8 SELFBALANCE INVALID 0xF9 0x49 PUSH1 0x69 SWAP16 SGT 0xF 0xC3 DELEGATECALL 0xCE SWAP10 0xAC 0xCE 0xB7 0xED PUSH23 0xF58274B20CF6B70F7745B06464736F6C63430008130033 "},"methodIdentifiers":{"advisorTopics(string,uint256)":"60803594","finalizeGrade(string,string,uint8,string,uint256)":"b2cbbcde","getSubmissionHistory(string,string)":"c2e85ea7","getTopicsByAdvisor(string)":"d831a67f","registerTopic(string,string,string,uint256,string[])":"6401c4cf","submitReport(string,string,string,uint256)":"56397c28","topics(string)":"f75c6c72"}}}}}