{
  "_format": "hh-sol-artifact-1",
  "contractName": "ThesisManagement",
  "sourceName": "contracts/ThesisManagement.sol",
  "abi": [
    {
      "anonymous": false,
      "inputs": [
        {
          "indexed": true,
          "internalType": "string",
          "name": "studentDID",
          "type": "string"
        },
        {
          "indexed": true,
          "internalType": "string",
          "name": "topicId",
          "type": "string"
        },
        {
          "indexed": false,
          "internalType": "uint8",
          "name": "grade",
          "type": "uint8"
        }
      ],
      "name": "GradeFinalized",
      "type": "event"
    },
    {
      "anonymous": false,
      "inputs": [
        {
          "indexed": true,
          "internalType": "string",
          "name": "studentDID",
          "type": "string"
        },
        {
          "indexed": true,
          "internalType": "string",
          "name": "topicId",
          "type": "string"
        },
        {
          "indexed": false,
          "internalType": "string",
          "name": "ipfsCID",
          "type": "string"
        }
      ],
      "name": "ReportSubmitted",
      "type": "event"
    },
    {
      "anonymous": false,
      "inputs": [
        {
          "indexed": true,
          "internalType": "string",
          "name": "topicId",
          "type": "string"
        },
        {
          "indexed": false,
          "internalType": "string",
          "name": "title",
          "type": "string"
        },
        {
          "indexed": true,
          "internalType": "string",
          "name": "advisorDID",
          "type": "string"
        }
      ],
      "name": "TopicRegistered",
      "type": "event"
    },
    {
      "inputs": [
        {
          "internalType": "string",
          "name": "",
          "type": "string"
        },
        {
          "internalType": "uint256",
          "name": "",
          "type": "uint256"
        }
      ],
      "name": "advisorTopics",
      "outputs": [
        {
          "internalType": "string",
          "name": "",
          "type": "string"
        }
      ],
      "stateMutability": "view",
      "type": "function"
    },
    {
      "inputs": [
        {
          "internalType": "string",
          "name": "studentDID",
          "type": "string"
        },
        {
          "internalType": "string",
          "name": "topicId",
          "type": "string"
        },
        {
          "internalType": "uint8",
          "name": "grade",
          "type": "uint8"
        },
        {
          "internalType": "string",
          "name": "feedback",
          "type": "string"
        },
        {
          "internalType": "uint256",
          "name": "submissionIndex",
          "type": "uint256"
        }
      ],
      "name": "finalizeGrade",
      "outputs": [],
      "stateMutability": "nonpayable",
      "type": "function"
    },
    {
      "inputs": [
        {
          "internalType": "string",
          "name": "studentDID",
          "type": "string"
        },
        {
          "internalType": "string",
          "name": "topicId",
          "type": "string"
        }
      ],
      "name": "getSubmissionHistory",
      "outputs": [
        {
          "components": [
            {
              "internalType": "string",
              "name": "studentDID",
              "type": "string"
            },
            {
              "internalType": "string",
              "name": "topicId",
              "type": "string"
            },
            {
              "internalType": "string",
              "name": "ipfsCID",
              "type": "string"
            },
            {
              "internalType": "uint256",
              "name": "timestamp",
              "type": "uint256"
            },
            {
              "internalType": "uint8",
              "name": "grade",
              "type": "uint8"
            },
            {
              "internalType": "string",
              "name": "feedback",
              "type": "string"
            },
            {
              "internalType": "bool",
              "name": "graded",
              "type": "bool"
            }
          ],
          "internalType": "struct ThesisManagement.Submission[]",
          "name": "",
          "type": "tuple[]"
        }
      ],
      "stateMutability": "view",
      "type": "function"
    },
    {
      "inputs": [
        {
          "internalType": "string",
          "name": "advisorDID",
          "type": "string"
        }
      ],
      "name": "getTopicsByAdvisor",
      "outputs": [
        {
          "internalType": "string[]",
          "name": "",
          "type": "string[]"
        }
      ],
      "stateMutability": "view",
      "type": "function"
    },
    {
      "inputs": [
        {
          "internalType": "string",
          "name": "topicId",
          "type": "string"
        },
        {
          "internalType": "string",
          "name": "title",
          "type": "string"
        },
        {
          "internalType": "string",
          "name": "advisorDID",
          "type": "string"
        },
        {
          "internalType": "uint256",
          "name": "deadline",
          "type": "uint256"
        },
        {
          "internalType": "string[]",
          "name": "requirements",
          "type": "string[]"
        }
      ],
      "name": "registerTopic",
      "outputs": [],
      "stateMutability": "nonpayable",
      "type": "function"
    },
    {
      "inputs": [
        {
          "internalType": "string",
          "name": "studentDID",
          "type": "string"
        },
        {
          "internalType": "string",
          "name": "topicId",
          "type": "string"
        },
        {
          "internalType": "string",
          "name": "ipfsCID",
          "type": "string"
        },
        {
          "internalType": "uint256",
          "name": "timestamp",
          "type": "uint256"
        }
      ],
      "name": "submitReport",
      "outputs": [],
      "stateMutability": "nonpayable",
      "type": "function"
    },
    {
      "inputs": [
        {
          "internalType": "string",
          "name": "",
          "type": "string"
        }
      ],
      "name": "topics",
      "outputs": [
        {
          "internalType": "string",
          "name": "title",
          "type": "string"
        },
        {
          "internalType": "string",
          "name": "advisorDID",
          "type": "string"
        },
        {
          "internalType": "uint256",
          "name": "deadline",
          "type": "uint256"
        },
        {
          "internalType": "bool",
          "name": "exists",
          "type": "bool"
        }
      ],
      "stateMutability": "view",
      "type": "function"
    }
  ],
  "bytecode": "0x60808060405234610016576110a3908161001c8239f35b600080fdfe6080604052600436101561001257600080fd5b60e0600035811c90816356397c2814610ae55781636080359414610a535781636401c4cf146106d0578163b2cbbcde14610435578163c2e85ea71461023657508063d831a67f146101215763f75c6c721461006c57600080fd5b3461011c57602036600319011261011c5760043567ffffffffffffffff811161011c576100b860206100a56100fd933690600401610ce7565b8160405193828580945193849201610d3e565b810160008152030190206100cb81610def565b906100d860018201610def565b61010b60ff600460028501549401541691604051958695608087526080870190610e95565b908582036020870152610e95565b916040840152151560608301520390f35b600080fd5b3461011c5760208060031936011261011c5760043567ffffffffffffffff811161011c57610153903690600401610ce7565b90806101686040519384815193849201610d3e565b8201918181600194858152030190209182549161018483610eba565b926101926040519485610cc5565b8084528184018095600052826000206000915b83831061020d5750505050604051928184019082855251809152604084019160408260051b86010195926000905b8382106101e05786880387f35b909192939483806101fc839a603f198b82030186528951610e95565b9997019594939190910191016101d3565b90858086819a989594610222859b999b610def565b8152019201920192509694969593956101a5565b3461011c57604036600319011261011c5767ffffffffffffffff60043581811161011c57610268903690600401610ce7565b9060243590811161011c57610281903690600401610ce7565b6102ae60405192825161029981866020809701610d3e565b84019383816002968781520301902090610d61565b9081546102ba81610eba565b936102c86040519586610cc5565b81855260009384528284208386019491855b8484106103af575050505050604051928184019082855251809152604084019160408260051b86010193926000965b8388106103165786860387f35b90919293948380600192603f198a820301865288519061039261036861035661034685518a86528a860190610e95565b8686015185820388870152610e95565b60408501518482036040860152610e95565b60608085015190840152608060ff81860151169084015260a0808501519084830390850152610e95565b9160c0809101511515910152970193019701969093929193610309565b60078660019260409a989a516103c481610ca9565b6103cd87610def565b81526103da858801610def565b838201526103e9868801610def565b60408201526003870154606082015260ff80600489015416608083015261041260058901610def565b60a0830152600688015416151560c08201528152019301930192919694966102da565b3461011c5760a036600319011261011c5767ffffffffffffffff60043581811161011c57610467903690600401610ce7565b9060243581811161011c57610480903690600401610ce7565b906044359060ff821680920361011c5760643590811161011c576104a8903690600401610ce7565b92608435936040519484516104e060ff60046020998a81818c01966104ce81838a610d3e565b8101600081520301902001541661100e565b8161050660405189818a516104f6818389610d3e565b8101600281520301902086610d61565b54111561068b5760ff600661053f8461053a6040518c818d5161052a81838c610d3e565b8101600281520301902089610d61565b611051565b5001541661064657816040518881895161055a818388610d3e565b8101600281520301902061056e9086610d61565b9061057891611051565b506004019260ff199386858254161790558260405189818a5161059c818389610d3e565b810160028152030190206105b09087610d61565b906105ba91611051565b50600501906105c891610ee9565b86604051808093895180926105dc92610d3e565b810160028152030190206105f09084610d61565b906105fa91611051565b5060060190815416600117905561061090610fee565b9161061a90610fee565b926040519182527f84edb7c20b02ea82e518b35456630e822a54829571e666fb9896b4a324e4223c91a3005b60405162461bcd60e51b815260048101889052601960248201527f5375626d697373696f6e20616c726561647920677261646564000000000000006044820152606490fd5b60405162461bcd60e51b815260048101889052601860248201527f496e76616c6964207375626d697373696f6e20696e64657800000000000000006044820152606490fd5b3461011c5760a036600319011261011c5767ffffffffffffffff60043581811161011c57610702903690600401610ce7565b9060243581811161011c5761071b903690600401610ce7565b9160443582811161011c57610734903690600401610ce7565b9160843581811161011c573660238201121561011c57806004013561075881610eba565b916107666040519384610cc5565b8183526024602084019260051b8201019136831161011c5760248201905b838210610a2b57505050506040519060ff6004855193602081818901966107ac81838a610d3e565b810160008152030190200154166109ef576040519260a0840190811184821017610943576040528583526020830185815261082f60408501916064358352606086019384526108256108136020608089019760018952604051809381928d51928391610d3e565b81016000815203019020965187610ee9565b5160018601610ee9565b51600284015551805190600160401b8211610943576003840154826003860155808310610976575b506020016003840160005260206000206000915b83831061095957505050509060046108939251151591019060ff801983541691151516179055565b60405160208184516108a88183858901610d3e565b810160018152030190208054600160401b811015610943576108cf91600182018155610d87565b61092d5761091361090d836109087f2d08bb8972d73403498ec264f70edd005da801455ebe63e265845018602fd9d29561092895610ee9565b610fee565b93610fee565b93604051918291602083526020830190610e95565b0390a3005b634e487b7160e01b600052600060045260246000fd5b634e487b7160e01b600052604160045260246000fd5b600160208261096a83945186610ee9565b0192019201919061086b565b600385016000526020600020908382015b8183018110610997575050610857565b806109a460019254610db5565b806109b1575b5001610987565b601f9081811184146109ca575050600081555b8b6109aa565b6109e660009284845260208420920160051c8201858301610ed2565b818355556109c4565b60405162461bcd60e51b8152602060048201526014602482015273546f70696320616c72656164792065786973747360601b6044820152606490fd5b813586811161011c57602091610a48839260243691880101610ce7565b815201910190610784565b3461011c57604036600319011261011c5760043567ffffffffffffffff811161011c57610a84903690600401610ce7565b610aa06020602435928160405193828580945193849201610d3e565b8101600181520301902090815481101561011c57610abd91610d87565b61092d57610acd610ae191610def565b604051918291602083526020830190610e95565b0390f35b3461011c57608036600319011261011c5767ffffffffffffffff60043581811161011c57610b17903690600401610ce7565b9060243581811161011c57610b30903690600401610ce7565b9060443581811161011c57610b49903690600401610ce7565b60405193835190610b6b60ff60046020988981818b01976104ce81838b610d3e565b60405190610b7882610ca9565b808252868201868152604083019285845260608101936064358552608082019560008752604051988b8a01908a821090821117610943576040526000895260a08301988952610bdf6104f68c60c0860193600085528d604051938492839251928391610d3e565b8054600160401b81101561094357610bfc91600182018155611051565b93909361092d577f317b266087532c01b689c235d20b5984906908d02447020a383951933a05e6b799610c949861090d98610c5c600696610c526109089a610c48610c7e98518c610ee9565b5160018b01610ee9565b5160028901610ee9565b51600387015560ff6004870191511660ff198254161790555160058501610ee9565b51151591019060ff801983541691151516179055565b93610928604051928284938452830190610e95565b60e0810190811067ffffffffffffffff82111761094357604052565b90601f8019910116810190811067ffffffffffffffff82111761094357604052565b81601f8201121561011c5780359067ffffffffffffffff82116109435760405192610d1c601f8401601f191660200185610cc5565b8284526020838301011161011c57816000926020809301838601378301015290565b60005b838110610d515750506000910152565b8181015183820152602001610d41565b602090610d7b928260405194838680955193849201610d3e565b82019081520301902090565b8054821015610d9f5760005260206000200190600090565b634e487b7160e01b600052603260045260246000fd5b90600182811c92168015610de5575b6020831014610dcf57565b634e487b7160e01b600052602260045260246000fd5b91607f1691610dc4565b9060405191826000825492610e0384610db5565b908184526001948581169081600014610e725750600114610e2f575b5050610e2d92500383610cc5565b565b9093915060005260209081600020936000915b818310610e5a575050610e2d93508201013880610e1f565b85548884018501529485019487945091830191610e42565b915050610e2d94506020925060ff191682840152151560051b8201013880610e1f565b90602091610eae81518092818552858086019101610d3e565b601f01601f1916010190565b67ffffffffffffffff81116109435760051b60200190565b818110610edd575050565b60008155600101610ed2565b919091825167ffffffffffffffff811161094357610f078254610db5565b601f8111610fb1575b50602080601f8311600114610f4d575081929394600092610f42575b50508160011b916000199060031b1c1916179055565b015190503880610f2c565b90601f198316958460005282600020926000905b888210610f9957505083600195969710610f80575b505050811b019055565b015160001960f88460031b161c19169055388080610f76565b80600185968294968601518155019501930190610f61565b610fde90836000526020600020601f840160051c81019160208510610fe4575b601f0160051c0190610ed2565b38610f10565b9091508190610fd1565b61100690602060405192828480945193849201610d3e565b810103902090565b1561101557565b60405162461bcd60e51b8152602060048201526014602482015273151bdc1a58c8191bd95cc81b9bdd08195e1a5cdd60621b6044820152606490fd5b8054821015610d9f57600052600760206000209102019060009056fea2646970667358221220f75347fef94960699f130fc3f4ce99acceb7ed76f58274b20cf6b70f7745b06464736f6c63430008130033",
  "linkReferences": {},
  "deployedLinkReferences": {}
}